:080000000C942A000C9400008E
:100008000C9400000C9400000C9400000C94000068
:100018000C9400000C9400000C9400000C94000058
:100028000C9400000C9400000C9400000C94000048
:100038000C9400000C9400000C9400000C94000038
:100048000C9400000C9400000C940000F894EE2727
:10005800ECBBF1E0FBBFEBBFE5BFF8E1F1BDE1BDF3
:100068008DE0A2E0BB27ED938A95E9F780E094E064
:10007800A0E6ED930197E9F7EFE5EDBFE4E0EEBF09
:10008800C0E6D1E00C944800EFEFEBBBE0E0EABB40
:10009800E8BBEFEFE7BBE0E0E5BBEFEFE4BBE0E098
:1000A800E2BBEFEFE1BBE0E0E3BFE2BFECBFE2EAB7
:1000B800EFBDE9E1EEBDE0E0EDBDECBDEFE1E7BD90
:1000C800E0E4E6BDE0E0EBBDEABDE9BDE8BDE2BDC8
:1000D800E5BDE4BDE3BDE5BFE4BFE9BFEAB9E0E8DB
:1000E800E8B9E0E0E0BFE6B9EDB9E6BFFFCFFFCF82
:00000001FF
