:040000000C942F002D
:100004000C9400000C9400000C9400000C9400006C
:100014000C9400000C9400000C9400000C9400005C
:100024000C9400000C9400000C9400000C9400004C
:100034000C9400000C9400000C9400000C9400003C
:100044000C9400000C9400000C9400000C9400002C
:1000540000000100050054000000F894EE27ECBBFA
:10006400F1E0F5BFE5BFF8E1F1BDE1BD8DE0A2E04F
:10007400BB27ED938A95E9F780E098E0A0E6ED933D
:100084000197E9F7E6E5F0E085919591009761F035
:10009400A591B59105901590BF01F00105900D92C1
:1000A4000197E1F7FB01F0CFEFE5EDBFE8E0EEBF2C
:1000B400C0E6D2E00C945E00EFEFEBBBE0E0EABBFD
:1000C400E8BBEFEFE7BBE0E0E5BBEFEFE4BBE0E06C
:1000D400E2BBEFEFE1BBE0E0E3BFE2BFECBFE2EA8B
:1000E400EFBDE9E1EEBDE0E0EDBDECBDEFE1E7BD64
:1000F400E0E4E6BDE0E0EBBDEABDE9BDE8BDE2BD9C
:10010400E5BDE4BDE3BDE5BFE4BFE9BFEAB9E0E8AE
:10011400E8B9E0E0E0BFE6B9EDB9E6BFE0E4FFE14D
:10012400F7BDE6BDE0EDF7E0FA93EA93FCD0E0E931
:10013400F1E0FA93EA930E94D60126D05524552083
:1001440009F426D0E1E0E51509F4D6D0E2E0E5159E
:1001540009F478D0F4CFFFCFEA81FB81FBBDEABD7F
:10016400E881F981F9BDE8BDAA9A09C0E881F9815D
:10017400FBBDEABDEA81FB81F9BDE8BDAA98AB9A53
:10018400979A969A24960895D1D097989698089518
:1001940049B2EEE74E22E6E6E41509F4CCD0EEE6E9
:1001A400E41509F4CDD0EEE4E41509F4D0D0EEE082
:1001B400E41509F4D3D0EEE1E41509F4D6D0EEE168
:1001C400E41509F4D2D0EEE3E41509F4D5D0EEE752
:1001D400E41509F4D8D0E6E7E41521F4DBD0E0E730
:1001E400F7E1A1D0E2E7E41521F4D4D0ECE7F5E19E
:1001F4009AD0E0E7E41521F4CDD0E8E8F3E193D018
:10020400E8E7E41521F4CBD0E4E9F1E18CD0E8E7A8
:10021400E41521F4C4D0E0EAFFE085D0ECE7E4156E
:1002240021F4BDD0ECEAFDE07ED0EEE7E41521F444
:10023400B6D0E8EBFBE077D0442019F4A5DFE1E089
:100244005E2E089549B2EEE74E22E6E6E41509F47F
:1002540072D0EEE6E41509F473D0EEE4E41509F483
:1002640076D0EEE0E41509F479D0EEE1E41509F472
:100274007CD0EEE1E41509F478D0EEE3E41509F45A
:100284007BD0EEE7E41509F47ED0E6E7E41521F42B
:1002940081D0E0E7F7E147D0E2E7E41521F47AD032
:1002A400ECE7F5E140D0E0E7E41521F473D0E8E8A9
:1002B400F3E139D0E8E7E41521F471D0E4E9F1E1A0
:1002C40032D0E8E7E41521F46AD0E0EAFFE02BD06D
:1002D400ECE7E41521F463D0ECEAFDE024D0EEE78A
:1002E400E41521F45CD0E8EBFBE01DD0442019F4C4
:1002F4004BDFE3E05E2E089549B2E7EEE41549F0E2
:1003040049B2ECE6F7E0FA93EA93FA93EA932EDF24
:10031400F4CF0CD0E4EFF1E0FA93EA930E94D60113
:10032400E2E05E2E0895FA93EA9316CFE0E0F0E05F
:10033400FA93EA93F8CFE8E5FBE1FA93EA93F3CF73
:10034400E0E7F7E1FA93EA93ECEAFDE0ECCFECE7BF
:10035400F5E1FA93EA93ECEAFDE0E5CFE8E8F3E1AE
:10036400FA93EA93ECEAFDE0DECFE4E9F1E1FA93F3
:10037400EA93E4ECF9E0D7CFE0EAFFE0FA93EA93FA
:10038400E4ECF9E0D0CFE8EBFBE0FA93EA93E4EC99
:10039400F9E0C9CFECEAFDE0FA93EA930895E4ECBE
:1003A400F9E0FA93EA930895E991F991309639F0D6
:1003B40080EA9FE00197F1F7A8953197C9F708956E
:00000001FF
