:020000000C945E
:100002002A000C9400000C9400000C9400000C9444
:1000120000000C9400000C9400000C9400000C945E
:1000220000000C9400000C9400000C9400000C944E
:1000320000000C9400000C9400000C9400000C943E
:1000420000000C9400000C9400000C9400000C942E
:100052000000F894EE27ECBBF1E0FBBFEBBFE5BF7D
:10006200F8E1F1BDE1BD8DE0A2E0BB27ED938A95F9
:10007200E9F780E094E0A0E6ED930197E9F7EFE578
:10008200EDBFE4E0EEBFC0E6D1E00C94B800E88139
:10009200F981FBBDEABDEA81FB81F9BDE8BDAA9AFF
:1000A200AB9A979A969A24960895E9B3E73E11F48B
:1000B20097D09BD0E9B3E73F21F492D0E4ECF9E08A
:1000C20099D0E9B3E33F21F48BD0E0EDF7E092D091
:1000D200E9B3E13F21F484D0E8E0F7E08BD0E9B363
:1000E200E93F21F47DD0E0E4F6E084D0E9B3E83FD3
:1000F20021F476D0E8E7F5E07DD0E9B3EC3F21F4D6
:100102006FD0E0EBF4E076D0E9B3EE3F21F468D0B3
:10011200E4EFF1E06FD0E9B3EF3E19F4E4ECF9E07B
:100122006CD0E9B3EF3C19F4E0EDF7E066D0E9B347
:10013200EF3819F4E8E0F7E060D0E9B3EF3919F4E9
:10014200E0E4F6E05AD0E9B3EF3119F4E8E7F5E07C
:1001520054D0E9B3EF3319F4E0EBF4E04ED0E9B355
:10016200EF3719F4E4EFF1E048D0E9B30895EFEF87
:10017200EBBBE0E0EABBE8BBEFEFE7BBE0E0E5BBEF
:10018200EFEFE4BBE0E0E2BBEFEFE1BBE0E0E3BFB7
:10019200E2BFECBFE2EAEFBDE9E1EEBDE0E0EDBDBA
:1001A200ECBDEFE1E7BDE0E4E6BDE0E0EBBDEABDBA
:1001B200E9BDE8BDE2BDE5BDE4BDE3BDE5BFE4BF29
:1001C200E9BFEAB9E0E8E8B9E0E0E0BFE6B9EDB9D5
:1001D200E6BFE0E4FFE1F7BDE6BD67DFFECFFFCF9C
:1001E200E0EAFFE0FA93EA930895E4E9F1E1FA9391
:1001F200EA934DCFFA93EA934ACFFA93EA93F5CF73
:00000001FF
